:020000041000EA
:1000000000B5324B212058609868022188439860DF
:10001000D860186158612E4B002199600221596106
:100020000121F02299502B49196001219960352056
:1000300000F044F80222904214D00621196600F024
:1000400034F8196E01211966002018661A6600F04E
:100050002CF8196E196E196E052000F02FF8012189
:100060000842F9D1002199601B49196000215960AB
:100070001A491B48016001219960EB211966A021F2
:10008000196600F012F800219960164914480160C1
:100090000121996001BC002800D000471248134993
:1000A000086003C880F30888084703B5996A0420EC
:1000B0000142FBD001200142F8D103BD02B5186610
:1000C0001866FFF7F2FF186E186E02BD00000240BE
:1000D000000000180000070000035F00212200005C
:1000E000F4000018222000A00001001008ED00E03C
:1000F00000000000000000000000000074B24E7A12
:1001000000200420F7010010C3010010C5010010F9
:10011000C1010010C1010010C1010010C101001097
:10012000C1010010C1010010C1010010C701001081
:10013000C1010010C1010010C9010010CB01001065
:10014000CD010010CD010010CD010010CD01001037
:10015000CD010010CD010010CD010010CD01001027
:10016000CD010010CD010010CD010010CD01001017
:10017000CD010010CD010010CD010010CD01001007
:10018000CD010010CD010010CD010010CD010010F7
:10019000CD010010CD010010CD010010CD010010E7
:1001A000CD010010CD010010CD010010CD010010D7
:1001B000CD010010CD010010CD010010CD010010C7
:1001C00000BE00BE00BE00BE00BE00BEEFF3058054
:1001D000103800BEF2EB8871604F00107C4F0010A9
:1001E0003802001090A31AE71E481F49086006C88D
:1001F00081F3088810471D480068002801D019487D
:10020000F3E70DA40ECC002902D000F012F8F9E7B4
:100210001749184A002000E001C19142FCD116495B
:100220008847164988471649884700BEFDE701C937
:1002300001C29A42FBD370477C4F0010C0000020DF
:1002400018020020D45000100000042000000420F8
:10025000D450001000100420001004200000000002
:10026000704700000000000008ED00E0000000D032
:1002700018020020840B0220891700103D03001093
:1002800081170010F8B5C0460448054B10B58342ED
:1002900003D0044B002B00D0984710BD180200205B
:1002A000180200200000000006480749091A8B10B8
:1002B000C90FC91810B5491003D0044B002B00D04A
:1002C000984710BD1802002018020020000000000E
:1002D00010B5074C2378002B09D1FFF7D5FF054B4C
:1002E000002B02D0044800E000BF0123237010BDA2
:1002F000D805002000000000104E0010054B10B57E
:10030000002B03D00449054800E000BFFFF7CCFFF5
:1003100010BDC04600000000DC050020104E00109B
:1003200070B5D02580242D06A404FA206C6104F059
:1003300069F8FA20AC6104F065F8F6E700B5192019
:1003400083B000F017F8D02380221B0692045A6273
:1003500000230193013380220449009304480023C1
:1003600003F04AFE03F056FE03B000BD104E00102D
:10037000210300100123D02283401206936293616F
:10038000094A83009A1811684022514080320A407D
:100390000649C0008C4663441A60054B9C46052301
:1003A000604443607047C04604C0014004D001402F
:1003B000004001400FB400B5084883B001F022FBB3
:1003C000049B002B07D005A91800019101F0BEF98C
:1003D000034801F017FB012001F0D0F91C4E00107A
:1003E0002C4E001010B50148FFF7E4FF304E00100E
:1003F00070B5EFF3108C72B60D4D2B68002BFCD04E
:10040000BFF35F8F0724CB08C618C05C01230C40E4
:10041000A3401C000440034207D118433070BFF3CF
:100420005F8F2C608CF3108870BD1000FFF7C2FF47
:100430002C0100D0044A1078431CDBB2172B00D9E2
:10044000102313707047C046B801002010B5034B4D
:1004500001001800024AFFF7CBFF10BD8C070020F7
:10046000404E00100021044B044ABFF35F8F02C3CB
:100470009342FAD17047C046000100D0800100D0FD
:10048000054B064A1360064A136053609360D360BD
:1004900013615361936170478080808000E400E0C5
:1004A00004E400E01F2318401E3B8340002905D0D0
:1004B000C021044A4900535013607047802201490B
:1004C0008B50FAE700E100E001228240034B1B68F9
:1004D00013405A1E9341D8B27047C04600E100E075
:1004E00070B50D00EFF3108672B60F4A1368002B3B
:1004F000FCD0BFF35F8F0D4B10309B6884001B59FD
:100500000B4A934203D09D4201D000F023FD074BDC
:100510009B681D51BFF35F8FBFF35F8F0022024BBB
:100520001A6086F3108870BD240100D000ED00E051
:10053000CD01001010B58308040003202040FF24E3
:10054000054AC0009446844081409B0063441A6879
:10055000A2430A431A6010BD00E400E0024B9C462F
:10056000614489000160704740000034F8B5124CC6
:10057000124DAC4212D20126002776422368002B8E
:100580000DD0FFF757FF01002000FFF7E7FF66607F
:100590002772BFF35F8F0C34AC42EFD3F8BDFFF787
:1005A00049FF01002000FFF7D9FF6660BFF35F8FAE
:1005B0000834AC42E2D3F1E7080200201802002020
:1005C000F0B5DE4657464E464546E0B587B0EFF3F8
:1005D0000583032201251A40954091008846A946CB
:1005E000B34B03925C58B34B1D60B34B04934B4623
:1005F000B24843630823E55E002D37DAA3881BB2B7
:10060000002B00DBADE0A379002B00D0EEE0082347
:10061000E05E002820DB430062691B18DB00D31872
:100620009E68DD68731C00D111E1A44801004144BB
:10063000826A0B69B71A9B1A9F4215D30123026A7B
:10064000039883401A420FD09C4800F0DBFA8D4299
:1006500002DCCCD18642CAD940BF07B0F0BCBB4651
:10066000B246A946A046F0BD0E61EDE762696B0097
:1006700092465B19DB009A4453469E68DF6800F09F
:10068000C1FA8F42BADC00D103E1002F00DAE8E0C2
:100690005246534652691B699346049A934200D1CD
:1006A000D9E052460821605E528800045946104342
:1006B0009847009001910099019A0B001000134394
:1006C00000D1CEE013000A00B61A9F41002806DBD5
:1006D0007A4800F097FA009E019F36184F41534622
:1006E0009E60DF6000229A5E002A00DA86E75300EF
:1006F00099186069C900411802938B68C9689B46C4
:10070000B94200DD7AE702D1B34200D976E7082387
:100710009C46A444059565462281A446029B2C0074
:1007200006E053009918C90041188D68C968AB46A6
:100730009B18DB00C318B94206DC00D1B3E01C00F3
:100740000023E25E002AECDA230064469C4653460E
:100750001A806346059D1D80A3881BB2002B00DA1A
:1007600051E72269EFF3108172B61368002BFCD0B9
:10077000BFF35F8F0123A7885B42A3803FB2236949
:10078000BFF35F8F00221A6081F31088002F00DA18
:1007900039E72300083322009A4666697B00DB199B
:1007A000DB00F318996850468C460824115FDD6819
:1007B000002910DB029306E0AB4244D00023E15E47
:1007C0002000002906DB4C006418E4003419E368BB
:1007D000AB42F1DD029B078000201F5E1980002FD5
:1007E000DCDA1400A379002B00D110E70023A371F9
:1007F00026000823E15E08364B1C00D12CE70800D8
:10080000A246656902E03E004B1C1AD04B005B1803
:10081000DB00EF180A008C46E95E7B881BB2002BD8
:10082000F1DA01235B42DC17BB60FC60824205D039
:10083000534631801B893B8053461A8160464B1CCE
:10084000E4D15446E5E6A3686345B7D9C2E76B1C1B
:1008500000D0EAE6F8E65B4658461B699847002850
:100860001BD153461B8822692381EFF3108372B694
:1008700011680029FCD0BFF35F8F514662880A805F
:1008800022696580BFF35F8F0021116083F31088B8
:10089000B4E6864200D8F8E6B0E65B461A685B68C4
:1008A0000092019307E7B34500D848E74CE7C046FC
:1008B000C80700203C700540C105001000400540FD
:1008C000074810B50268EFF3108172B61368002B69
:1008D000FCD0BFF35F8F01F021FA0020002110BD92
:1008E000800A002070B52E4C2569002D04D00A2105
:1008F0002C48FFF733FE70BD2B4E0321300000F073
:1009000077F9E660FFF796FD284B03229C46D0233B
:1009100022701B061B6801216370254B6044A36095
:100920000F23800020610220638063694942A18017
:1009300019800231198647311D83585218315A5295
:1009400075325C399952183201319952183201319D
:100950009952183201319952083518329D5202319C
:100960001832995218320131995218320131995284
:10097000183201319952183201319952183201312D
:1009800099520C4B0C49DC6001303562FFF7A8FD31
:1009900001210320FFF786FD084B1D60A7E7C04635
:1009A000BC010020800A00200040054040000034C7
:1009B000FFFF1000C8070020C10500103860054087
:1009C00070B501000469EFF3108C72B6206800283E
:1009D000FCD0BFF35F8F02200D5E4C6968004019A8
:1009E000C00024180869002D36DB26884E80BFF32E
:1009F0005F8F002606608CF31088E360638804989C
:100A0000013320615B0405985B0CA26060611A1CD5
:100A1000002B1FD093B22804628018430A69EFF3B9
:100A2000108C72B61368002BFCD0BFF35F8F8B88DD
:100A300023808D800B69BFF35F8F00221A608CF3D7
:100A400010880B7801329A40CB6808498C46634481
:100A50001A6070BD0122DDE7BFF35F8F00230360E2
:100A60008CF3108801204042F3E7C0463C20000090
:100A700010B543890A1493421ADD53009B1842694A
:100A8000DB00D3180469EFF3108C72B62268002AD9
:100A9000FCD0BFF35F8F5A88090494B2090C8A42D4
:100AA00008D00369BFF35F8F00221A608CF31088AF
:100AB000002010BD8022120214435C8001230269D1
:100AC0008371BFF35F8F002111608CF3108804499C
:100AD00002788C469340C268012062441360E8E7C4
:100AE0003C200000F0B557464E46DE464546E0B590
:100AF00006000F0085B0EFF3058399468B46002B67
:100B000012D0384900204B6ABB4206D38A6ADB1BED
:100B1000591E8B41B2424041184305B0F0BCBB4660
:100B2000B246A946A046F0BD2F4B9A46DB689846D0
:100B300053461B784046039300F064F84246039BFB
:100B4000040004339B009B580D001B1A3900300031
:100B5000001BA941894510DC0DD020BF214A00208F
:100B6000536A5B45D9D3926ADB1B591E8B41B24253
:100B700040411843D1E78342EFD900F04BF83200EF
:100B80003B00121A8B41002B1ADB00230193174BF9
:100B90003200009350463B00FFF712FF011E0FDDAD
:100BA000104B5A6A5A451BD39B6AB34216D3504620
:100BB000FFF75EFF0B4A0020536A5B45ADD3D2E7D7
:100BC000084A0020536A5B45A7D30020926ADB1BCA
:100BD000B24240415A1E934118439EE75A45E6D11E
:100BE00020BFE4E700400540BC010020C108001020
:100BF00010B5024A0248FFF7FBFB10BD604E001023
:100C0000900700200300416A0A00986A596A8A42E4
:100C1000FAD17047034B596A0A00986A596A91429F
:100C2000FAD1704700400540F8B5DE464E465746BB
:100C30004546E0B58B4605000A991800160000F0FD
:100C400081FA0A9B6C001F02324B64199C46A40077
:100C50006444636881469F4200D967602B1FDBB202
:100C60009846012B30D9C02380229B01E318120142
:100C70001A60294BAD0059599A4600291BD17301BE
:100C8000E026226853401E40802342465B01E31861
:100C90001E60012A30D9802380229B01E3181201B3
:100CA0001A6053464A4667605A51F0BCBB46B2468A
:100CB000A946A046F8BD586900F044FA0130430047
:100CC0001B18033BFDD2DAE75B46012BCBD1C023D7
:100CD00003229B01E3181A60023AA3681A42FCD06F
:100CE0007301E0262268AD0053401E4080230A4A6B
:100CF0005B019246E3181E605A4621685140032268
:100D00000A401A6001225B469A40A3681A42FCD04E
:100D1000C1E7C0460080004094070020F0B5464679
:100D20004F46D646C0B51F00344B44009C4624189D
:100D3000A4006444636888461600FF2B02D8802311
:100D40005B006360031FDBB29A46012B30D9C023DE
:100D500080229B01E31812011A60294B8500595922
:100D6000994600291BD17301E026226853401E409A
:100D7000802352465B01E3181E60012A30D980238C
:100D800080229B01E31812011A6080235B006360DC
:100D90004B465F51E0BCBA46B146A846F0BD586923
:100DA00000F0D0F9013043001B18033BFDD2DAE715
:100DB0004346012BCBD1C02303229B01E3181A60C9
:100DC000023AA3681A42FCD07301E026226885002B
:100DD00053401E4080230A4A5B019146E3181E607F
:100DE00042462168514003220A401A6001234246CC
:100DF0009340A2681342FCD0C1E7C0460080004087
:100E000094070020014B8000C058704794070020D1
:100E1000F8B5040021481E0017000D0000F092F9FB
:100E20000100380000F08EF9069B36041B031E43B8
:100E30002368002B20DB1A4B1A49E3185A1E9341F2
:100E40008022920194465B421B0B174A1B036344AA
:100E50001360164A13601F000A689743FBD1144BB6
:100E60002560E2182123A06013602368002BFCDAC0
:100E70000823E6601360F8BD3F2322681340AB42AD
:100E8000D9D1A3681B051B0D8342D4D1EE22E368A0
:100E9000D2021340B342CED1EDE7C046001BB700EB
:100EA0000040FDBF08C0004000E0004000F00040EE
:100EB000043000008023024A9B000B43D36270473A
:100EC00000800540002310B50100988A1B8B9847CD
:100ED00010BDC046162310B50100188802331B88C8
:100EE000984710BDF8B54746CE4680B50F1E18D0BE
:100EF00014239946043304000025012698464B46E6
:100F00001888434621681B88984701C4431E9841AE
:100F100001350640AF42F2D13000C0BCB946B04600
:100F2000F8BD0126F8E7C046AA23064A1B01136054
:100F30008D235B00D3600449044B19605368002B78
:100F4000FCDA70470040024000B0FA000060024046
:100F50007047C04610B50148FFF72CFA844E0010C8
:100F600070B5074D074EB54209D20024013E761BED
:100F7000B60808CD984723000134B342F9D170BDBB
:100F8000C84D0010044E001070B5074D074EB54215
:100F900009D20024013E761BB60808CD98472300ED
:100FA0000134B342F9D170BDFC4D0010044E001065
:100FB000054B064A06491A60064A074B1A6010009C
:100FC0000B689843FBD1704700E00040BFCDFBFEAB
:100FD00008C00040FE7F3C0000F00040044BDB6C8A
:100FE000002B03D18022034BD2021A607047C04607
:100FF000000011504C201150044A054B1A60054A5C
:101000001368DB018033FBD17047C046FFFFFF014F
:1010100000F0004008C000404022034B9A675A6726
:101020001A67DA667047C04600F0014010B5FFF756
:1010300019FA10BD70B5044D044CA968C0222000F7
:1010400000F076FBAC6070BD00ED00E00000002019
:10105000002310B5294C82B0A367FFF765FF01227A
:10106000274B1A60636C012BFCD10322254B1A60BD
:10107000224A936B012BFCD1013300930121224AB8
:1010800022480433FFF7C4FE052301210093204AC0
:101090002048FFF7BDFE0022022104201E4BFFF76F
:1010A0003DFE0022012105201C4BFFF737FE0022E8
:1010B000002107201A4BFFF731FE002200210820F3
:1010C000174BFFF72BFE8023DB000093002200214B
:1010D0000920134BFFF7A8FD0022104B002106202A
:1010E000FFF71CFE0420FFF78DFE0E4900F02AF8E2
:1010F00001000020FFF7DEFE02B010BD00800040BE
:101100003CB0004030B00040002F685900800240E1
:10111000008C864700C00240001BB700405973078F
:10112000006CDC0240420F0001480421014B1847CB
:10113000E0010020E50E0010014B5B68184700003D
:10114000E0010020114A936F9B0813D2106651668C
:10115000002905D0FFE7FFE7FFE7516F106F7047E9
:1011600004B5002801D00020C04303F01DFE00217B
:1011700004BDC046F0B5146E556E576F166FFFF77D
:10118000E5FF1466556657671667F0BD000000D08E
:1011900094464A4A926F9208624601D228E0C046BD
:1011A000F0B5464E346E756E776F366F00F020F8EE
:1011B0009446424A14665566576716676246F0BD04
:1011C00094463E4A926F9208624601D254E0C0466D
:1011D000F0B53A4E346E756E776F366F00F04CF89E
:1011E0009446364A14665566576716676246F0BDE0
:1011F000002B24DB11D000293EDA00B5C943404260
:1012000000D1013100F038F8C943404200D101312A
:10121000DB43524200D1013300BD002AEBD100284C
:1012200001D1002905D00020C90FC90701D1C04351
:10123000410800B503F0B0FD0022002300BD00B559
:1012400000290ADBDB43524200D1013300F014F8DD
:10125000C943404200D1013100BDC943404200D1E1
:101260000131DB43524200D1013300F005F8DB438A
:10127000524200D1013300BD002923D1002B18D1E7
:10128000002A0CD0BC460D4F38667A660021002338
:10129000FFE7FFE7FFE77A6F386F67467047002880
:1012A00001D00748010000B503F076FD00220023BD
:1012B00000BD02000B00002000217047000000D09C
:1012C000FFFFFFFF002B00D0BFE0130C28D1002A46
:1012D000E7D080B4114F39667A66FFE7FFE730B494
:1012E000040C7B6F396F1B0423433B667A66FFE770
:1012F000FFE7FFE7C04684B27B6F3D6F1B042343CB
:101300003B667A66FFE7FFE7C04600232C042D0CFE
:101310007A6F386F00196941B0BC7047000000D087
:10132000F0B594460025140E01D112020835140FB1
:1013300001D112010435940F01D192000235D40F6E
:1013400001D152000135D40B0134254F7C66254C68
:101350003C660E0C93B2FFE7FFE7FFE73C6F664386
:10136000360C7703BE467343DF0B5B04C01AB941EA
:10137000130C7343DB18C91ACE086643360CB64407
:1013800093B273431F0F1B01C01AB941130C73436F
:101390001F0B1B05C01AB941860D8F023E436643E1
:1013A000360C092D24DB520A7243801A7703460A51
:1013B0006643360C16235B1BDE40DF40BF196446D4
:1013C0006643821B7046043506330100D940A840AD
:1013D000C01900D30131A24206D20023F0BD0000A3
:1013E000000000D0FFFFFFFF121B0130F3D3F1E735
:1013F00009277F1BFE406446A2B27243801A00D2C6
:101400000139220C7243130C1204821A99410B0009
:101410007046043513370100F940A840801900D305
:101420000131002B02D1A2420AD2F0BD013000D31B
:101430000131121BFAD2013BF8D1A24200D2F0BD19
:10144000013000D30131121BF7E7F0B51C0C00D0BE
:1014500080E00CB400251C0A04D11B02160E334395
:10146000120208351C0B04D11B01160F3343120165
:1014700004359C0B04D19B00960F33439200023538
:10148000DC0B02D192185B4101351C0097186441B6
:101490000134464F7C66464C3C660E0CFFE7FFE786
:1014A000FFE7C0463C6F6643360C7703BE4697B2F3
:1014B0007743C01B00D20139C01B00D201399FB253
:1014C0007743C91BC91B170C77437E04FF0B801B96
:1014D000B941CE086643360C0C2D33DBB644120BF3
:1014E0001F053A431B0B97B27743C01B00D201394B
:1014F0009FB27743C91B170C77433E043F0C801BF8
:10150000B941860D8F023E43664329277F1BFE406B
:101510000C3D7746AF40BF1930BCA2B2ABB27243AC
:101520007343801A9941220C7243130C1204801ADF
:10153000994102000B000137001BA941F9D2781E26
:101540000021F0BD0C277F1BFE4077467F0BAF408C
:10155000FF19E0E700245D1C07D0144F7D66396653
:10156000FFE7FFE7FFE7FFE73C6F95B29EB26543F9
:101570006643401BB141150C1E0C6543664336049F
:101580002F0C3E432D04401BB141994204D202006E
:101590000B0020000021F0BD01D19042F7D3801A4A
:1015A000994101349942F2D3F6E70000000000D0DF
:1015B000FFFFFFFF132370B51D78012D19D014DD37
:1015C0001F48FFF787FC06001E48FFF783FC1E4CF0
:1015D00080223100200000F0ABF8022D2DD01B48F6
:1015E000FFF770FC1A4B186070BD1A4B164CA364C1
:1015F000F5E7184B144C23606360A360E36023613C
:101600006361A361E36123626362A362E3622363B4
:101610006363A363E36323646364A364E364236594
:101620006365A365E36523666366A366E366236774
:101630006367A367E367A364D1E7064BA364CEE7C0
:101640005344000053460000980300204C33000030
:101650007C0A00205916001007B5604601880A0A66
:101660000230DF2AFAD1C9B2820804D30288408846
:101670000004104300E00068014A5050039007BD89
:1016800098030020132310B512481C78FFF722FCA2
:101690000100012C0AD003DD80220F4800F048F839
:1016A0000E48FFF70FFC0E4B186010BD0A4C542279
:1016B000200000F03DF80B4B6365A365E3652366EE
:1016C0006366A366E36623676367A367E3672362D2
:1016D000E361E5E753460000980400204C33000026
:1016E0007C0A0020E916001007B5604601880A0A46
:1016F0000230DF2AFAD1C9B2820804D302884088B6
:101700000004104300E00068014A5050039007BDF8
:101710009804002001480421014B1847F0010020E3
:10172000E50E0010014B1B6818470000F001002077
:10173000014B5B6818470000F001002010B500283D
:1017400000D110BD00F014F9FBE7C04610B5094AFE
:101750000300146884B0002C08D0012200910648D0
:10176000524203A9A047012004B010BD00F04AF97D
:101770000020F9E7C40700203D17001000BEFDE778
:1017800010B5FFF7FBFFC04670B5FFF7E9FB074D4B
:10179000074EB54209D20024013E761BB60808CD9B
:1017A000984723000134B342F9D170BD044E0010B4
:1017B000104E0010030010B5080011001B68984778
:1017C00010BDC046F0B5C64600B5437D07000C000D
:1017D0001600002B46D0002A17DD0B780A2B24D0E8
:1017E00000239846012E13D001252900635C0135A2
:1017F0000A2B26D0B542F8D1464509DCA419013C94
:1018000023780D3B5A4253413B7580BCB846F0BD2E
:101810004346E018A419F11A013C3B689847237825
:101820000D3B5A4253413B75EFE7037D002BD7D167
:1018300002210F483B689847012EDFD001239846CC
:10184000D2E7631E5B5C0D2BD4D0884504DA434697
:10185000C91AE0183B689847022105483B68A8462A
:101860009847C7E70368110020009847CDE7C046B6
:10187000304F0010F0B54546DE464E465746E0B5BF
:1018800083B091461C0080460D00FFF7C3F900238A
:10189000304A12184B41002B02DA01222E4B5242E1
:1018A0002E4908008A4603F087FA07006B1C03D113
:1018B000404603F0D7F90500002C27D0284E294BCD
:1018C0001C68002C18D04B46002B21D1264B994682
:1018D00002E02469002C0FD02368002BF9D04B467E
:1018E0001B68002B01D09C42F3D120002A00414606
:1018F000B0472469002CEFD1002F26D1280003B077
:10190000F0BCBB46B246A946A046F0BD174ED6E78E
:10191000154B99460A239B4602E02469002CEBD024
:101920002368002BF9D04B461B68002B01D0A34243
:10193000F3D12A0041462000B0476B465A462000AA
:10194000DA71D91D0122B047E7E7504603F01CFACF
:10195000D4E7C04640420F00FFFFFF7F1002002087
:10196000C5170010BC070020C0070020B5170010E5
:10197000F0B5CE46474680B583B06B460600DD1D08
:101980002870FFF747F90023194A12184B41002B22
:1019900002DA0122174B524217490800884603F029
:1019A0000BFA164B81461C68002C14D0144F02E031
:1019B0002469002C0FD02368002BF9D03B68002B42
:1019C00001D09C42F4D1200001222900FFF7FAFE49
:1019D0002469002CEFD14B46002B05D1300003B019
:1019E000C0BCB946B046F0BD404603F0CDF9F5E7BE
:1019F00040420F00FFFFFF7F10020020BC070020C5
:101A0000C007002070B5040003F02CF90123010089
:101A1000050001222000FFF72DFF084B1C68002C59
:101A200006D06368002B05D098472469002CF8D1B4
:101A3000280070BD2469002CF3D1F9E7BC07002011
:101A40007047C046000000000000000000000000D9
:101A50000BA10CC9126892009B581868203080F3C3
:101A60000988022080F31488BFF36F8F3FBCAE4615
:101A700008BC04BC62B61847C046C046C046C04653
:101A8000000000D0D8070020D0231B061A6DD20713
:101A900004D501219A6D1A6D1142FBD1D023FF228A
:101AA0001B061A658022024B52051A607047C04619
:101AB00004ED00E000000000000000000000000055
:101AC000EFF309811AA00CC8106880001B18186871
:101AD00020390160F0C144464D4656465F46F0C18C
:101AE000146E556E566F176F3039F0C1106808B517
:101AF00072B601F071F962B60CBC1168086810305A
:101B0000F0C8A046A946B246BB4680F309880D221C
:101B100012073038F0C81466556656671767F0C864
:101B20001847C046C046C046C046C046C046C0462C
:101B3000000000D0D807002010B5EFF3108472B673
:101B400001F056FF02F0AEFA002803D08022044BC9
:101B500052051A6001F0D2FF84F3108810BDC04610
:101B600004ED00E010B5FEF73DFCC04610B5802442
:101B7000031F64041C60043B19600349043B1960A3
:101B8000143B40381A6010BD651B00108022044BC6
:101B900052051A60BFF34F8FBFF36F8F7047C04677
:101BA00004ED00E0D0231B061B6808499B005A582F
:101BB000002A08D00020585005495B58BFF35F8FBA
:101BC000106083F3108862B67047C046740A002024
:101BD0008C0A0220D02300221B065A657047C0469B
:101BE000002310B5084A094C052023601360FFF755
:101BF00009F9FA218900FFF7A5FA054B01381860A9
:101C00000723236010BDC04618E000E010E000E0AC
:101C100014E000E070B5224B1A78D0231B061B6835
:101C20009A4230D0FF231F4A1B0411680E200B4339
:101C300013601D4902F042FE0B201C4902F03EFEDB
:101C4000D023FF221B061A651A6DD20704D5012185
:101C50009A6D1A6D1142FBD1D0252D062C68FF21FB
:101C60000F342000FEF766FC20001149FEF738FC17
:101C700001212000FEF716FCFFF7EAFE286801F0BC
:101C8000ABF8FEF7AFFBFFF7ABFFFF23054A1B06E0
:101C900011680F200B431360064902F00FFEC1E7E5
:101CA0000002002020ED00E0C11A0010411A0010CF
:101CB000891A0010391B001010B5EFF3108372B6AB
:101CC000FFF7A8FF10B50E20FEF7C0FB0F20FEF7B0
:101CD000BDFB0022034B04481A7002F061FEFFF7BF
:101CE00099FFC04600020020B91C001010B50A4B35
:101CF0001B78FF2B0CD0EFF30580002805D0D023F4
:101D00001B061B684000C01810BD01F023FDFBE757
:101D1000D0231B061868F7E70002002000B51B4A15
:101D20000B00127883B0FF2A27D0194902688C462D
:101D3000022162449210FF319140090A40BF0068BD
:101D4000BFF35F8F0022026083F31088EFF30583F7
:101D50001048DBB20068002B03D100F04BF903B050
:101D600000BD019201AA00F08FF9019B002BF6D073
:101D70008022094B52051A60F1E740BF0268BFF3A9
:101D80005F8F0021116083F31088E8E700020020D4
:101D900000FFFF2FFC0A022004ED00E0F0B51D005B
:101DA000304B06001B780F00140083B0FF2B4DD082
:101DB000FEF730FF22002B00121A8B4101212A4826
:101DC0004942801859413668002920DC1BD0BFF3F6
:101DD0005F8F0023336087F31088244B5A6A954243
:101DE0000AD98022224B52051A60BFF34F8FBFF3EE
:101DF0006F8F002003B0F0BD9B6A0120A342F9D28F
:101E00009542F7D1EDE7FA239B009842DFD3FA22FF
:101E100000239200FFF7BCF9031ED8D0D02212068F
:101E2000126814499200565013495750134A022120
:101E300094466644B610FF31B140114A090A106851
:101E400000930122002300F079F8C6E70368BFF38E
:101E50005F8F00221A6081F3108820002900FEF7AE
:101E600041FEC7E70002002018FCFFFF00400540CC
:101E700004ED00E0740A00208C0A022000FFFF2F0E
:101E8000FC0A022010B500F04DF8014B186010BD9F
:101E9000FC0A0220F8B5DE4657464E464546E0B5F8
:101EA00005000F00060000F011FF29682C69394376
:101EB0000C362960A6422CD0002398468023DB04F0
:101EC0009B4680235B049A4680239B0499460FE03F
:101ED0006746002F0AD057463A4202D042461A437C
:101EE00090464B46194302F0C5FA2968A6420ED027
:101EF00020000F000268646813021B0A1F40BC46E2
:101F00005F463A42E4D06345E5D0A642F0D143466D
:101F10009943296002F06AFAF0BCBB46B246A94672
:101F2000A046F8BD10B51C2002F066FD041E03D0CB
:101F3000002308C000F0B4F8200010BDF0B5C6467C
:101F40000D00060000B51F00904600F0BFFE2B00FC
:101F500034682340002F0DD1002B28D04346002B9E
:101F600028D02300AB43336002F040FA200080BC4D
:101F7000B846F0BD9D42F1D0069B002B1AD04346D7
:101F800080215A1E9341C9041B061943069A29430E
:101F9000301D01F03BF902F029FA002824D002F0AC
:101FA00091FA040083010DD52402240ADEE7069B82
:101FB000002B02D102F01AFAD8E741464B1E994194
:101FC0000906E3E701F014FD346823002B40002FDD
:101FD0000DD1002B05D04346002B02D02300AB438C
:101FE000336001F08BFDDFE701F0E8FCD7E7AB429F
:101FF000F7D1F0E7F8B5DE4657464E464546E0B520
:1020000005000F00060000F061FE29682C693943C5
:102010000C362960A6422CD0002398468023DB048E
:102020009B4680235B049A4680239B0499460FE0DD
:102030006746002F0AD057463A4202D042461A431A
:1020400090464B46194302F015FA2968A6420ED075
:1020500020000F000268646813021B0A1F40BC4680
:102060005F463A42E4D06345E5D0A642F0D143460C
:102070009943296002F0BAF92868F0BCBB46B24621
:10208000A946A046F8BDC04610B5044C13000A008E
:102090000100200002F0FCFB10BDC046951E0010A0
:1020A0000300083301224360C360036100235242EE
:1020B000826003607047C046002303617047C046DA
:1020C00043689A684B608A60516099600368086150
:1020D000013303607047C046030030B50D68083314
:1020E0006A1C0DD01C005B681A68AA42FAD94B60C2
:1020F000996003688C60013361600861036030BDE2
:1021000004696368F3E7C0460369416882688A60CE
:1021100051605968814206D0002202611A68013A72
:102120001A60186870475A60F6E7C046F0B5DE4698
:102130004E4657464546E0B585B0060001F058FCCE
:102140004523F45C64B2002C21DD213B9946213308
:102150009A46B14409E0AA6BEB6B03969A4245D3C9
:10216000013CE3B264B2002B11D0B56C002DF2D16A
:10217000736A002B0BD0484601F0ECF80028EFD032
:1021800001F0DEFA013CE3B264B2002BEDD145234D
:10219000FF22F25401F0B2FC01F02AFC4423350086
:1021A000F45C103564B2002C05DC13E0013CE2B2B3
:1021B00064B2002A0ED03369002B0BD0280001F046
:1021C000C9F80028F2D0013C01F0BAFAE2B264B2D8
:1021D000002AF0D14423FF22F25401F08FFC05B015
:1021E000F0BCBB46B246A946A046F0BD5346EF5CE4
:1021F000AB6B2A6C013398467FB2002A0CD12B6856
:102200009B46002B27D04346AB637B1C15D053461F
:1022100001377FB2EF54A3E7686803A9FFF788FA94
:102220006B682A6C9B18AA686B609342EBD32B688F
:102230006B604346AB637B1CE9D16B6A002B00D11A
:102240008EE72800243001F085F8002800D187E7C8
:1022500001F076FA96E7A86801F084FB5B46AB6074
:1022600043460190AB637B1C0AD0534601377FB2D3
:10227000EF54019B002B00D172E701F061FA81E776
:102280006B6A002BF5D02800243001F063F8002899
:1022900000D075E7EDE7C046F0B5C64600B5846CE2
:1022A00082B0A26BE36B002601909A4204D3300007
:1022B00002B080BCB846F0BD4523226CE55CA76B3C
:1022C0006DB2002A16D0606801A9FFF731FA636881
:1022D000226C9B18A2686360934201D323686360F9
:1022E00000260137A7636B1C0FD0452301356DB263
:1022F000E554DCE723689846002BF1D1A06801F093
:1023000031FB43460600A360EBE7636A002BCED0A7
:102310002000243001F01EF80028C8D00126C6E7AE
:10232000F8B506000800704354300D00170002F0A5
:1023300063FB041E25D00300002D24D123602564F7
:10234000E66301F055FB226CE36B21685343C81828
:102350009B1A61600025C9184422FF23A060200059
:10236000E160A563A3540132A3541030FFF798FE37
:1023700020002430FFF794FE01F0C0FB5023E75407
:10238000A5642000F8BD5433D8E7C046F0B5CE466A
:10239000474680B585B00400884699460192022BD5
:1023A00000D19DE001F024FBA36BE26B00274425E4
:1023B00000269A4232D8019B002B64D0002F5ED0B9
:1023C00001F09CFB00F082FC01F012FB635D5BB24C
:1023D000013300D166554523E25C52B2013200D18F
:1023E000E65401F08BFB01A902A801F069F800286E
:1023F00000D06FE001F0FCFAA26BE36B9A422CD0A4
:1024000001F07CFB2000FFF791FE01F0EFFF0127B8
:1024100001F0EEFAA36BE26B9A42CCD9226CA66B68
:10242000A56B002A37D1236800209846002B00D1E5
:1024300083E0A36C0135A563002B00D170E04B460F
:10244000022B01D1002E04D12000FFF725FF002828
:102450003DD101F053FB012018E001F04FFB2000BB
:102460000199103000F062FE2000FFF75FFE01F0DE
:10247000BDFF0028CBD101F0A1FA0127C8E702A8CF
:1024800001F012F89CE701F039FB002005B0C0BC58
:10249000B946B046F0BD4B46002B29D14146606895
:1024A000FFF746F96368226CA16C9B18A268636011
:1024B000013593423AD2A5630029C5D1636A002B46
:1024C000C7D02000243000F045FF0028C1D001F023
:1024D00075FABEE72000FFF729FE01F087FFD4E779
:1024E00001F086FA226CA36BA66BA56B002A9AD02A
:1024F0004146E068FFF71CF9226CE36851429B1AE1
:102500002268E360934202D2A3685B18E3604A4604
:10251000A36C022A17D00135A563002B94D1CDE717
:10252000636A002BCDD10028D1D192E72368A5633F
:102530006360002900D087E7C0E7A06801F012FAC5
:102540004346A36075E7002D04D0A563002B00D09F
:1025500078E7B3E70122A263002B00D072E7ADE772
:10256000F8B557464E464546DE460400E0B590466F
:102570000F001E00EFF3108972B601F039FAA26B5A
:10258000E36B9A4233D30025022E0AD001F0B6FA4B
:1025900089F310882800F0BCBB46B246A946A04685
:1025A000F8BD4523E55CA36B226C9B46A36B6DB223
:1025B0009A46002A25D03900E068FFF7B9F8226C66
:1025C000E36851429B1A2268E360934202D2A368F7
:1025D0005B18E3605346022E49D00133A3636B1CA2
:1025E00035D0452301356DB2E5540125CEE74523AD
:1025F000E55CA36B226C9B46A36B6DB29A46002AE6
:1026000011D12768002F45D053460133A3636B1CBB
:10261000E7D1A36C002B33D0022E1BD15B46002BDD
:1026200018D00125B2E7002EC5D139006068FFF748
:102630007FF851466368226C01319B18A268636081
:10264000934201D323686360A1636B1CC9D1A36C5F
:10265000002B15D02000FFF71FFE0028C5D04346F1
:10266000002BC2D001234246012513608EE7002BC8
:1026700000D10123A3636B1CB3D1A36C002BCDD17C
:10268000636A002BB1D02000243000F063FE0028E4
:10269000E5D1AAE7A06801F065F9A760B4E7C046F4
:1026A000F0B54746CE46040080B585B08846019215
:1026B00001F09EF9A76B002F5ED1019B002B3BD050
:1026C00002A800F0F1FE002344269946452501F0BA
:1026D00015FA00F0FBFA01F08BF9A35D5BB2013350
:1026E00001D14B46A355635D5BB2013301D14B462B
:1026F000635501F003FA01A902A800F0E1FE0028E9
:1027000022D101F075F9A36B002B2AD101F0F6F963
:1027100020000199243000F009FD2000FFF706FD9C
:1027200001F064FE002824D001F062F9A76B002FAD
:1027300022D1019B002BCAD101F0E0F9002005B0A5
:10274000C0BCB946B046F0BD2000FFF7EFFC01F079
:102750004DFE01F04DF9A36B002BEDD001F0CEF949
:10276000E2E701F0CBF92000FFF7E0FC01F03EFECC
:10277000DAE701F023F9D7E7226C002A08D0E168F4
:10278000A3688918E16099420BD24046FEF7D0FF5A
:102790007B1EA3632369002B06D101F0AFF9012052
:1027A000CDE72168E160F0E72000103000F0D2FDB5
:1027B0000028F2D001F002F9EFE7C046164B1A6884
:1027C000002A15D09A68002A18D01A69002A17D052
:1027D0009A69002A16D01A6A002A15D09A6A002A25
:1027E00014D01A6B002A13D09A6B002A12D07047AB
:1027F0000022D20099509B185860F8E70122F8E7B0
:102800000222F6E70322F4E70422F2E70522F0E7CA
:102810000622EEE70732ECE79805002070B50400C9
:1028200016000D0001F0E4F84422A35C5BB2013312
:1028300001D10023A3544522A35C5BB2013301D133
:102840000023A35401F05AF9A36B002B03D02000FE
:10285000FFF76CFC70BD200032002900243000F02E
:10286000F9FCF4E710B5FFF791F9034C2368022B4C
:10287000FCD9FFF78BF9F9E7F4070020F0B5C6465D
:10288000304B00B5040088461E68EFF3108172B625
:10289000D0273F063B682C4D9B00EA5881F31088F7
:1028A0007D230021D154EFF3108272B63B689B0068
:1028B000E85882F310880830FFF726FC631C30D0FC
:1028C0003419EFF3108172B6D022120613689B0000
:1028D000EB5881F310889C60A64214D81B4B1868F3
:1028E000EFF3108672B613689B00E95886F31088E0
:1028F0000831FFF7F1FB164B1A68A24200D91C60A1
:1029000080BCB846F0BD134B1868EFF3108472B664
:1029100013689B00E95884F310880831FFF7DCFB4B
:10292000EEE74346002BCBD0EFF3108272B63B6844
:102930009B00E95882F3108807480831FFF7C0FB75
:10294000DEE7C046700B0220D8070020E407002015
:10295000140B0220EC070020480B0220D023F0B516
:102960005746DE4645464E461B061B685A4A9B00A4
:10297000E0B5D35883B09846584B594F9A46594BB7
:1029800001929B4659E042461365D023534D1B06E6
:102990001A682B78534C013BDBB22B70002B07D10C
:1029A0000121A35C8B43A354BFF35F8F4E4B19608F
:1029B000D0231B061A686B78013BDBB26B70002BCF
:1029C00008D10221A35C8B43A354BFF35F8F012284
:1029D000464B1A60FFF7E6F8EFF3108372B6D02388
:1029E0001B061A68414B196800294ED0BFF35F8F50
:1029F000012302216B70A35C0B43A354D0231B065D
:102A00001A68394B1968002938D0BFF35F8F01234A
:102A100001212B70A35C0B43A354EFF3108172B61A
:102A2000D0221206136801989B00C35881F31088C6
:102A30001E654B463B60002E35D043469B6B0233F0
:102A40002AD143461E6D3B68994600233B60002E09
:102A500099D1D02355461B061A686B785C46013B1A
:102A6000DBB26B70002BB5D10221A35C8B43A35466
:102A7000BFF35F8F01221D4B1A60ABE7A15CC90752
:102A800021D419680029C0D1FBE7A15C89071ED4B5
:102A900019680029AAD1FBE703B0F0BCBB46B246D7
:102AA000A946A046F0BD2B781268013BDBB22B7023
:102AB000002BC2D10121A35C8B43A354BFF35F8FD2
:102AC000094B1960B9E72B7801332B70A5E76B78B8
:102AD00001336B7092E7C046D8070020880A0220B5
:102AE0009C0A0220840A0220380100D03C0100D058
:102AF00070B5EFF3108472B6D023334A1B06196801
:102B00001368002B43D0314BBFF35F8F01220225A6
:102B10002F4842705A5C2A435A54D0252D4A2D061C
:102B200016682968002E3AD0BFF35F8F01255A5CE2
:102B30002A435A54284A116801311160D0210906EC
:102B40000D68002101700120595D81435955BFF383
:102B50005F8F204B18601368012B02D084F310881C
:102B600070BDEFF3108172B6D0231B061A681B4BA1
:102B70009200D35881F310881B6D002BEED1EFF338
:102B80000583DBB2002BE9D1FFF7E8FEE6E70F4B48
:102B9000585C80070AD410680028B5D1FBE75E5C5A
:102BA000F60708D41568002DBED1FBE70848427827
:102BB00001324270B1E7084A0078116801311160B2
:102BC0000028C8D12D68BEE73C0100D0840A02204D
:102BD000880A0220380100D09C0A0220D807002071
:102BE0004A425141F8B5374C036B26682568226884
:102BF0005B1A926B012A06D9656861686268926BFC
:102C0000012A15D9F8BD304A11680029F4D1376B73
:102C1000ED6B7D1BAB42EFDB4668F707ECD56368D5
:102C200060689C4663689B6B012B3CD9002016E0D2
:102C3000254A5668002EE5D12D6BC96B691A8B4267
:102C4000E0DB012746687F420223300018401E4225
:102C500003D1012FD6D8002101E001210120EFF39B
:102C60000583DBB2002B11D0D0231B061B688342E7
:102C700024D08D0063599B6B0233C3D00800FEF74C
:102C8000A9FF0222635952429A63BBE78D00635940
:102C90009B6B0233B6D0D0231B061B688342EDD159
:102CA00001235351AEE75768002FBFD16346C06B75
:102CB0001B6B1B1A9D42C7DA0020D0E70123890055
:102CC00053509FE7D80700207C0B0220384B70B58B
:102CD0001B68002B00D170BDEFF3108472B6D023B7
:102CE000344A1B0619681368002B43D0324BBFF3DC
:102CF0005F8F01220225314842705A5C2A435A54A0
:102D0000D0252F4A2D0616682968002E3AD0BFF329
:102D10005F8F01255A5C2A435A542A4A11680131AF
:102D20001160D02109060D68002101700120595D54
:102D300081435955BFF35F8F214B18601368012BF6
:102D400002D084F31088C6E7EFF3108172B6D02367
:102D50001B061A681C4B9200D35881F310881B6D18
:102D6000002BEED1EFF30583DBB2002BE9D1FFF7A7
:102D7000F5FDE6E7104B585C80070AD41068002880
:102D8000B5D1FBE75E5CF60708D41568002DBED10F
:102D9000FBE70A48427801324270B1E7094A0078FD
:102DA0001168013111600028C8D12D68BEE7C04606
:102DB0003C0B02203C0100D0840A0220880A022039
:102DC000380100D09C0A0220D8070020014B186867
:102DD0007047C046700B0220F0B5D023DE46574640
:102DE0004E4645461B06E0B51A68C64B87B01968C3
:102DF000002900D129E1C44B9946BFF35F8FC34B33
:102E00009B46012359464B704B4602219B5C0B436A
:102E100049468B54D021BE4B09061C680A68002C19
:102E200000D11CE1BFF35F8F01215B4619704B4657
:102E300001249B5C23434C46A354B64B1B68002BD8
:102E40002FD0B54B8000C150D0231B061A685946BD
:102E500000230B704B46012148469B5C8B438354F7
:102E6000BFF35F8FAA4B1960D0231B061A685B461D
:102E700059465B78013BDBB24B70002B0AD14B46C5
:102E800002219B5C8B4349468B54BFF35F8F012229
:102E90009C4B1A6007B0F0BCBB46B246A946A046A0
:102EA000F0BD9D4B87001A0005930023D3510133D9
:102EB00083409A4C984621688B005B189B009A4689
:102EC0001A005546964B08329C4602935B59624461
:102ED000002B0DD123680139013B23608B00029E3A
:102EE0005B189B00F358143D143A002BF2D0AA460D
:102EF0008C4651468B4B04900393039B8A4E5B5840
:102F00009C682000944267D0019605E00199C95958
:102F10008B4239D0844249D06468944232D0E3680D
:102F20009D6B691CF2D1464659683142F2D0019E30
:102F30000498F2599563F259986320000192F35175
:102F4000FFF7E2F8029821005044FFF7B9F8D023C8
:102F50001B061A68019B002B0AD0029C1800A4468D
:102F6000196B80698B005B189B006344984236D0D4
:102F70005B461B78013BDBB259460B70002B00D03F
:102F800072E767E76468CAE7454659682942C1D0D5
:102F9000049898632000FFF7B7F802982100504486
:102FA000FFF78EF8D0231B061A68E1E7504661460A
:102FB000019E01398B00029C5B189B00E35814387A
:102FC000143A002BF5D082468C465146039B5B5841
:102FD0009C682000944297D1906801969CE70198E4
:102FE0004368C06B091A8A46414619425ED10321E3
:102FF0001F200C00804601271C401942B8D02B002E
:10300000019255469A4601E0002C32D02000FEF78E
:1030100093F84346181A3B00834081009C43735841
:1030200072581B6BD26B9B1A9D42EDDD7258926BEE
:10303000002AE9DB7258926B012AE5DC059A5258A6
:10304000002AE1D182461D00DEE72F498946895CCE
:1030500089072FD41968002900D0CEE6FAE74D463B
:10306000AD5C01342C422CD11968002900D0D9E67E
:10307000FAE75546019A012D00D979E7EFF3058368
:10308000DBB2002B2CD0954236D0AC0033599B6B71
:10309000023300D16CE72800FEF79CFD0222335971
:1030A00052429A63D0231B061A6861E7F1594968B6
:1030B0008B439CE7154B9B465A465B780133537014
:1030C000A8E65B465D461B785A1C2A70114A1268B6
:1030D000002A00D1E5E6104A800084500A684BE7D8
:1030E000AC0033599B6B023300D141E79542D2D1FA
:1030F0000123059A1351D5E70123059992008B50BE
:10310000D0E7C0463C0100D0840A0220880A022091
:10311000380100D09C0A02207C0B0220A40A022065
:10312000F4070020F8070020D8070020F8B50C00AD
:10313000EFF3108272B6D026360633682D4D9B0011
:10314000595982F310881C31FEF7C6FF2A4B1F68BD
:10315000EFF3108172B633689B005A5981F31088DF
:103160007D230021D154EFF3108272B633689B00A7
:10317000585982F310880830FEF7C6FF631C2CD024
:10318000E419EFF3108272B633689B005B5982F347
:1031900010889C60A7420DD9184B1868EFF3108275
:1031A00072B633689B00595982F310880831FEF7D4
:1031B00093FFF8BD124B1868EFF3108272B63368B4
:1031C0009B00595982F310880831FEF785FF0D4B9B
:1031D0001A689442EDD21C60EBE7EFF3108272B6EE
:1031E00033689B00595982F3108807480831FEF76D
:1031F00067FFDEE7D8070020700B0220EC070020F5
:10320000E4070020140B0220480B022070B50D00CB
:103210001400EFF3108172B6D026360632680C4BDC
:103220009200D25881F31088802109062943D16188
:10323000EFF3108572B632689200D15885F310888A
:103240001C31FEF73DFF01212000FFF717FB70BD89
:10325000D8070020F0B5C6460C0000B51600EFF305
:10326000108272B6D0231B061B68344D9B00E958B0
:1032700082F310881C31FEF723FF002E01D00124B9
:1032800064422F4B1B689846EFF3108172B6D0272B
:103290003F063B689B00EA5881F310887D2300219C
:1032A000D154EFF3108272B63B689B00E85882F36A
:1032B00010880830FEF728FF631C30D04444EFF339
:1032C000108172B6D022120613689B00EB5881F36E
:1032D00010889C60A04514D81A4B1868EFF310862C
:1032E00072B613689B00E95886F310880831FEF720
:1032F000F3FE154B1A68944200D21C6080BCB8469D
:10330000F0BD124B1868EFF3108472B613689B007F
:10331000E95884F310880831FEF7DEFEEEE7002E50
:10332000CCD0EFF3108272B63B689B00E95882F371
:10333000108807480831FEF7C3FEDFE7D8070020F2
:10334000700B0220E4070020140B0220EC07002081
:10335000480B0220F8B5C368DD682C001C3420003F
:10336000FEF7D2FE4A4B1B68002B28D1143C2000EC
:10337000FEF7CAFE474A2B6B11688B4224D898008F
:10338000C018454B80002100C018FEF799FE434C41
:103390002A6B276821682368414E9B6B013A012BF9
:1033A00014D96168606863689B6B012B24D9D023B2
:1033B0001B061B689B00F058431E9841F8BD210076
:1033C0003848FEF77DFEE2E71360D8E73068002852
:1033D000E7D13B6BC96B5B1A9A42E2DB6968CF07A6
:1033E000DFD5656867686268926B012A43D9D0238C
:1033F0001B0600271B6814E07368002BD7D10B6BEA
:10340000C16B5B1A9A42D2DB0122696852420223E5
:103410000F001F40194227D0D023012001271B068F
:103420001B68EFF30582D2B2002A10D0BB422BD02A
:1034300085006259926B0232BCD0FEF7CBFB0222B0
:10344000635952429A63D0231B061B68B2E785007A
:103450006259926B0232ADD0BB42EED1012373515F
:10346000D0231B061B68A5E7D0231B0600201B6882
:10347000012AD6D99EE77268002AB8D12D6BFF6B5E
:10348000ED1B9D42C3DDB2E70123800033508EE780
:103490009C0A0220A40A0220F4070020D80700207A
:1034A0007C0B0220280B0220034B1B680360034B9C
:1034B0001B6843607047C046180B0220700B022047
:1034C000F0B5D6464F46464604008A46C0B5EFF3EF
:1034D000108372B6904F3B68002B5BD18F4D9049A3
:1034E0000B689C4663689846EFF3108972B6D02249
:1034F000120613689B00E85889F310887D23C05C8E
:10350000002837D0EFF3108172B612689200AA58E3
:1035100081F310880021D15401243B68002B23D073
:10352000EFF3108172B6D022120613689B00EB589D
:1035300081F310881B6D002B16D0EFF3108072B64C
:1035400013689B00E95880F310880B6D013B0B65F5
:10355000EFF3108172B613689A00AA5881F31088AD
:10356000126D002A00D16EE02000E0BCBA46B146E0
:10357000A846F0BD53461B685A1C62D0694A2668AB
:10358000106886424FD0606860454CD80023524690
:103590001360C1E7EFF3108172B6D0231B061B68DE
:1035A0005E4D9A00AA5881F31088126D002A13D13B
:1035B000EFF30582D2B2002A00D180E05A495B4A7B
:1035C0005B480668002E00D18DE0BFF35F8F0120BD
:1035D0001070CA5C0243CA54EFF3108072B6D02157
:1035E00009060B689B00EA5880F31088136D0133BD
:1035F0001365504B1B68002B00D070E7EFF310826F
:1036000072B60B689B00EB5882F310881B6D012B80
:1036100000D064E7EFF30583DBB2002B00D05EE758
:10362000FFF79CF95BE760464646801B8342ADD9B5
:1036300060461B1A504643440360136823600B68BE
:103640006360002469E7394A11780139C9B2117001
:10365000002908D10120344DE95C8143E954BFF3CE
:103660005F8F334B1860EFF30583DBB2002B00D084
:103670007AE7D0231B0619685378013BDBB25370FD
:10368000002B09D10220284A535C83435354BFF3D3
:103690005F8F0122284B1A60FEF784FAEFF3108146
:1036A00072B6D0231B061A68244B9200D35881F3BC
:1036B0001088002B00D157E7FEF768FA54E71E4A3E
:1036C000116800291BD01849BFF35F8F0226B4464A
:1036D00001206646154A5070C85C3043C854D02358
:1036E0001B061B686CE7CE5CF60704D40668002E48
:1036F00000D06AE7FAE71378013313706CE70A49E0
:10370000C85C800703D410680028DDD1FBE7074AB6
:1037100050780130507053E73C0B0220D80700204E
:10372000700B0220180B0220840A0220880A022053
:10373000380100D09C0A02203C0100D07C0B022002
:10374000D02301211B061A68014B9200D15070470B
:103750007C0B0220EFF3108172B6D0231B061A688F
:10376000024B9200D05881F310887047D807002090
:1037700070B5744D01242B68002B01D1200070BD61
:10378000EFF3108372B62B68002B45D0EFF3108057
:1037900072B6D0231B061B686B4A9900515880F300
:1037A0001088096D002913D1EFF30581C9B20029F2
:1037B00000D19BE065486649664C2668002E00D122
:1037C000A6E0BFF35F8F01240C70C15C2143C1549C
:1037D000EFF3108472B6D020000603689B00D15826
:1037E00084F310880B6D5C4C01330B652368002B50
:1037F00013D1EFF3108172B603689B00D35881F3A5
:1038000010881B6D012B08D1EFF30583DBB2002B71
:1038100003D1FFF7A3F800E04F4C246863425C41FA
:103820002B686400002BA9D0EFF3108072B6D02172
:1038300009060B68444A9B009B5880F310881B6D57
:10384000002B00D19AE7EFF3108572B60B689B004E
:10385000985885F31088036D013B0365EFF31080E2
:1038600072B60B6899008A5880F31088126D002A8E
:1038700000D083E736490A78013AD2B20A70002AAA
:1038800008D10120314DEA5C8243EA54BFF35F8FD7
:10389000304B1860EFF30583DBB2002B00D06DE7EF
:1038A000D0231B061A684B78013BDBB24B70002B10
:1038B00009D1022025498B5C83438B54BFF35F8F72
:1038C0000122264B1A60FEF76DF9EFF3108172B6F4
:1038D000D0231B061A68224B9200D35881F310881C
:1038E000002B00D14AE7FEF751F947E71B4908686A
:1038F000002819D01548BFF35F8F01240226144910
:103900004C70C45C3443C454D0231B061B6853E77B
:10391000C65CF60704D42668002E00D051E7FAE70B
:103920000B7801330B7053E70848C45CA40703D439
:103930000C68002CDFD1FBE705494C7801344C7052
:103940003AE7C0463C0B0220D8070020840A022038
:10395000880A0220380100D09C0A02203C0100D0D5
:103960007C0B022070B5041E08D0036E016BC26D83
:10397000013B0366914201D0002B01D0002070BDB5
:10398000050008352800FEF7BFFB2022E36DD21AA0
:10399000E261084A236311688B4200D913609800E2
:1039A000C018054B8000C0182900FEF789FB0120D4
:1039B000E5E7C046A40A0220F407002010B5EFF3A3
:1039C000108172B6D0231B061B68074A9B009A58C9
:1039D00081F31088126D002A03D00121034A995007
:1039E00010BDFEF7D3F8FBE7D80700207C0B0220C0
:1039F00070B5EFF3108372B6394B1B68002B3BD0C8
:103A0000EFF3108072B6D0231B061B68354A99006D
:103A1000515880F31088096D002911D1EFF3058109
:103A2000C9B2002931D030483049314C2568002DC9
:103A30003DD0BFF35F8F01240C70C15C2143C154A2
:103A4000EFF3108C72B6D020000603689B00D158AB
:103A50008CF310880B6D01330B65264B1B68002B14
:103A60000AD1EFF3108172B603689B00D35881F33B
:103A700010881B6D012B00D070BDEFF30583DBB206
:103A8000002BF9D1FEF76AFFF6E71B49086800280A
:103A900018D01548BFF35F8F0124022513494C70DD
:103AA000C45C2C43C454D0231B061B68BDE7C55C13
:103AB000ED0703D42568002DBBD1FBE70B7801335C
:103AC0000B70BDE70848C45CA40703D40C68002C45
:103AD000E0D1FBE705494C7801344C70A5E7C046BE
:103AE0003C0B0220D8070020840A0220880A02200A
:103AF000380100D09C0A02203C0100D0314B10B5A7
:103B00001B68002B23D0EFF3108072B6D02109067A
:103B10000B682D4A9B009B5880F310881B6D002B6F
:103B200015D0EFF3108C72B60B689B0098588CF38D
:103B30001088036D013B0365EFF3108072B60B68CC
:103B400099008A5880F31088126D002A00D010BDA9
:103B50001E490A78013AD2B20A70002A08D101201F
:103B60001B4CE25C8243E254BFF35F8F194B186039
:103B7000EFF30583DBB2002BE9D1D0231B061A68D3
:103B80004B78013BDBB24B70002B09D1022010496E
:103B90008B5C83438B54BFF35F8F01220E4B1A6003
:103BA000FEF700F8EFF3108172B6D0231B061A68F7
:103BB0000A4B9200D35881F31088002BC7D0FDF731
:103BC000E5FFC4E73C0B0220D8070020880A02204A
:103BD000840A0220380100D03C0100D07C0B022076
:103BE000F0B5DE4657464E464546E0B585B0FDF792
:103BF000CDFF524BD0279B46514B524E9946524BCC
:103C0000524C9A46524B3F060193524B0293524BF1
:103C10000393524B98462368002B00D17EE0FFF7B8
:103C2000E7FE2368002B16D05B46DB68DD68AB6BD4
:103C3000013300D07AE028000830FEF765FA3368D7
:103C4000686B013B33602368013B236000F09CFFFD
:103C5000280000F099FF4B461B68002BDBD0EFF3E8
:103C6000108272B651463B689B00CB5882F3108895
:103C70001B6D002BCFD0EFF3108172B652463B681C
:103C80009B00D25881F31088136D013B1365EFF34D
:103C9000108172B650463B689A00825881F31088B2
:103CA000126D002AB7D101990A78013AD2B20A708E
:103CB000002A08D101200299CA5C8243CA54BFF38A
:103CC0005F8F274B1860EFF30583DBB2002BA2D187
:103CD00001993A684B78013BDBB24B70002B09D15C
:103CE00002210298835C8B438354BFF35F8F0122D0
:103CF0001C4B1A60FDF756FFEFF3108272B63B685B
:103D000003999B00CB5882F31088002B00D182E7E7
:103D1000FDF73CFF2368002B00D080E743461B687B
:103D2000022B00D877E7FDF731FFF3E7FFF7E6FE58
:103D300043461B68022B00D86DE7F4E75C0B0220BA
:103D40003C0B0220940A0220D8070020980A022087
:103D5000880A0220840A02207C0B0220F40700203B
:103D6000380100D03C0100D0F0B54F464646D6465B
:103D7000C0B59600070030000D00994600F03CFEEB
:103D80008046002800D1E9E0802000F035FE041EC6
:103D900000D1E0E0434632004363A5214046FDF7F1
:103DA000C1FC0722636B043E9B1993439846002D88
:103DB00000D1DBE02B783932A354002B43D06B7851
:103DC0000132A354002B3ED0AB780132A354002B18
:103DD00039D0EB780132A354002B34D02B79013247
:103DE000A354002B2FD06B790132A354002B2AD07F
:103DF000AB790132A354002B25D0EB790132A354C7
:103E0000002B20D02B7A0132A354002B1BD06B7ACD
:103E10000132A354002B16D0AB7A0132A354002BED
:103E200011D0EB7A0132A354002B0CD02B7B013242
:103E3000A354002B07D06B7B0132A354002B02D07C
:103E40004E23AA7BE2544F230022E254089D1F2DEB
:103E500000D97EE026000023083623663000256363
:103E6000E5659A46FEF728F920001C30FEF724F994
:103E700020235B1BE36120005346142223650021AD
:103E80006461A4626430FDF74DFC2000042200212F
:103E90007830FDF747FC230052467C3301251A7029
:103EA0007D236D42E25439004A4640466560FDF785
:103EB0005DFE424B2060A5639F425AD0404BFF1AE3
:103EC0007B425F410A9BE763002B00D01C60099B8B
:103ED0006360FFF78DFD3B4A1368013313603A4B73
:103EE00098461B689A46002B1ED0384F384A1368F4
:103EF000013313606365374B226B19688A4200D91E
:103F00001A6093009B189B00F8183100FEF7D8F850
:103F100043461B68002B24D1FFF7F0FD0120E0BCD5
:103F2000BA46B146A846F0BD1368284F012B22D0EF
:103F3000E36B002BDAD0284A1368002B04D05368B7
:103F4000002BD3D101339A465346A3639B00D45030
:103F5000CCE71F257EE7404600F016FE01204042D8
:103F6000DDE700212000FEF73BFED5E74023E554C6
:103F70006CE70127A6E7A0239B0099463D00B944C2
:103F800028001435FEF78CF8A945F9D1134B994652
:103F90001800FEF785F8124D2800FEF781F8114849
:103FA000FEF77EF81048FEF77BF81048FEF778F829
:103FB0004A460F4B1A600F4B1D60B9E7E13B0010FA
:103FC00065280010940A02203C0B0220F407002010
:103FD000A00A0220A40A0220D8070020D40A022046
:103FE000E80A0220280B02205C0B0220480B02206A
:103FF000E4070020EC07002010B584B0079C029471
:10400000012464420194069C0094FFF7ADFE04B0C5
:1040100010BDC04670B588B000F0F4FB194B6A467D
:10402000049330230126938200258022164C764289
:1040300000230294520004A9144801960095FFF74A
:1040400093FE31236A4613758022043400231048FE
:10405000029401960095520004A9FFF785FE0128FD
:1040600003D00C4B1B6808B070BDEFF3108372B621
:10407000094B1E60094B1860094B1D60FDF722FEBD
:10408000EFE7C04649444C45040B0220E13B0010D9
:1040900065280010344F0010140B02203C0B022046
:1040A000700B0220F0B5DE464E4657464546E0B559
:1040B00083B0082200216846FDF734FBFFF798FC27
:1040C000794B1B689946002B77D1784B1E680136D7
:1040D0001E60002E00D17FE0754B9B465B461B683F
:1040E000B34200D891E0734B9846734D734E2B68E2
:1040F0006F461A6B93009B1842469B00D2586B6820
:10410000196B8B005B1841469B00C9583468631ECD
:104110009C410123934292415242144372688B4264
:104120009B41501E82415B4213430193D023009474
:104130001B061B689846002C17D0002B00D1A2E06C
:104140000024EFF30583DBB2002B20D14B469B000C
:104150009A46EB589B6B023307D0D0231B061B6893
:104160004B4521D101235246B3504B460437012B16
:1041700028D03B68002B25D04346012B00D180E09E
:1041800001239946EFF30583DBB2002BDED0D02369
:104190001B061B684B4500D180E04B469B009A46AE
:1041A000EB589B6B0233E0D04846FDF713FD5346B6
:1041B0000222EB5852429A63D7E70024404A136820
:1041C00001331360FFF79AFC200003B0F0BCBB463C
:1041D000B246A946A046F0BD3A4B3B4A1968106862
:1041E0001860116039490A6801320A601A68126859
:1041F000002A3FD12E4B9B4601235A465B42136057
:104200005B461B68B34200D96DE72E4F3B681B68C5
:10421000002B3CD0274B98462D4B9A4621E0250099
:1042200008352800FDF770FFE36A002B03D020005B
:104230001C30FDF769FF5246236B1268934201D987
:10424000524613609800C018800029004044FDF7D2
:1042500037FF01212000FEF7C3FC3B681B68002BE1
:1042600017D03B68DB68DC68A3689E42D7D25A4609
:1042700013603AE71B680E4ADB6893461B681360BD
:104280002CE701249EE70023012499466DE7094BA2
:10429000984601235A465B42136026E74B460122AB
:1042A0009B00F25061E7C0469C0A0220700B02207E
:1042B000140B0220F4070020D80700207C0B0220FA
:1042C000240B0220E4070020EC070020180B02203A
:1042D000A40A0220F8B5CE46474680B5FFF788FB12
:1042E000D02109060B68354A99461368013B1360D3
:1042F000086833494B78013BDBB24B70002B09D186
:10430000022430490B5CA3430B54BFF35F8F0121A0
:104310002D4B196013680024002B42D12B4B1B68D6
:10432000002B3ED02A4D2B68002B24D0294B2A4E3F
:104330009846EB68DF6838003C001C300834FDF715
:10434000E3FE2000FDF7E0FE3B6B3268934200D9AC
:1043500033609800C018800021004044FDF7B0FE93
:104360002B68002BE5D11D4B1A681268002A1FD15B
:104370001B4B013A1A601B4B1B4D98461C684B4661
:104380009F00002C0AD00126FFF78CFE002800D0E9
:10439000EE51013C002CF7D143461C60EC59631EE2
:1043A0009C41FFF7ABFB2000C0BCB946B046F8BD4E
:1043B0001B68DB681A680A4B1A60DCE79C0A02205B
:1043C000880A0220840A02203C0100D0940A0220BC
:1043D000280B0220F4070020A40A0220E407002092
:1043E000140B0220240B02207C0B0220044B10B57E
:1043F0001868002800D110BDFFF76CFFFBE7C0462E
:104400003C0B022070B5041E0AD0174D2B68002B00
:104410001DD100212000FEF731FA2B68002B11D1AD
:10442000EFF3108172B6D0231B061B680F4A9B0066
:104430009A5881F31088126D002A12D001210C4A7B
:10444000995070BDFFF746FF0028E9D0F9E7FEF765
:104450004FFB00212000FEF711FA2B68002BDFD064
:10446000F0E7FDF793FBECE73C0B0220D8070020B8
:104470007C0B022070B58023C4681B0625000B430B
:1044800003600835FDF740FE2800FDF73DFE0B4AAE
:10449000236B11688B4200D913609800C018084B39
:1044A0008000C0182900FDF70BFEFFF7A1FA0021DC
:1044B0002000FEF795FBFFF721FB70BDA40A022048
:1044C000F4070020EFF3108072B6D02212061168B4
:1044D0000D4B8900C95880F31088C869EFF3108C20
:1044E00072B611688900C9588CF31088096BEFF314
:1044F000108C72B612689200D2588CF31088202368
:104500005B1AD3617047C046D8070020F0B5464615
:104510004F46D6462823C0B5984604271F4E84B080
:104520000EE0DB68DC681A68251D28009146FDF75F
:10453000EBFD236A200098474346E35C1F420DD100
:1045400033681A68002AECD1154A1168136031608B
:1045500004B0E0BCBA46B146A846F0BDA3694B44DE
:10456000994513D30F4B9A461B68002BE8D00023C4
:1045700000934B4602940193FFF7FAF8534600224A
:10458000694618680023FDF701FFD9E72900306864
:1045900063602461FDF7A0FDD2E7C046E00700207C
:1045A000F0070020740B0220F0B54546DE464E466B
:1045B00057468F4BE0B599468E4B8DB098468E4B43
:1045C0008E4D02938E4B04AC019328239B464B46A1
:1045D0001B681F68002F00D093E0FEF777FBFEF703
:1045E000F5FB43461B680600984200D2A5E043460F
:1045F0001860029B28681B68B91B1A6853425A410D
:10460000FEF70CF9FFF7F2FE002800D192E000223D
:1046100021002868FEF744F80028D8D02368A06855
:10462000002B67DBA6687369002B02D0301DFDF7F5
:104630006BFDFEF7CBFB43461B680700984200D298
:1046400082E043461F602368092BE0D8019A9B0053
:10465000D3589F465B460122F35C13435A46B3543A
:10466000B169636836615A187260BA426FD8FB1A32
:10467000994229D8336A300098475B460422F35C9C
:104680001A42C4D02B68002BC1D00021B2696368E4
:1046900008919B1809930A96FFF76AF800230022F5
:1046A000286808A9FDF772FEB1E75B460122F35CBA
:1046B00013435A46B35463683661DA19B3617260C2
:1046C000BA4248D8002BA2D0029B311D1868FDF7D2
:1046D00003FD9CE75B460122F35C93435A46B354C7
:1046E00095E75B46F35C9A0757D5012293435A46F8
:1046F000B3548CE76368E16898472368002B86DB36
:1047000090E7DB681F68FEF7E1FAFEF75FFB4346C0
:104710001B680600984210D343461860874220D990
:1047200000222868B91BFEF779F8FFF75FFE002822
:1047300000D06CE7FFF742F969E7FFF7E7FE434671
:104740001E60FFF753FE62E7FFF7E0FE79E7BB422A
:1047500001D993428ED94B46311D1868FDF7BCFC38
:1047600055E7FFF743FE4B461B68DB68DB689A465C
:10477000043318000393FDF7C7FC5A4653469B5C6D
:1047800004221A420DD101225946934352465354F2
:10479000534650461B6A984739E7300000F0F4F959
:1047A00035E7534651469A690961BB184B60B342DD
:1047B00005D94B4603991868FDF78EFCE8E7F61B10
:1047C000B2420FD82B68002BE2D000230A91089345
:1047D0000997FEF7CDFF00230022286808A9FDF7FE
:1047E000D5FDD5E7029B03991868FDF775FCCFE767
:1047F000E00700200C0B0220F0070020740B0220C1
:10480000384F001070B582B0FFF7F2F8174C2368EC
:10481000002B12D0FFF772F923680020002B0AD07A
:10482000134B802201931F23124900931248002347
:10483000D200FFF7E1FB02B070BD104E3000FDF773
:104840002FFC0F4D2800FDF72BFC0E4B00221E60A5
:104850000D4B10210A201D60FDF762FD206000282D
:10486000D8D00A49FDF7AAFFD4E7C046740B02204E
:10487000780B0220D44E0010A9450010A80A02208F
:10488000BC0A0220E0070020F0070020CC4E0010F8
:1048900030B514001A0002230D0085B05B4200936E
:1048A000054B019069461868002302950394FDF7B3
:1048B00057FE05B030BDC046740B0220F8B50E009F
:1048C000EFF3108772B60C4B84009B681D59A94208
:1048D00004D00A4B9D420AD2FCF73CFB064B9B6876
:1048E0001E51BFF35F8F87F310882800F8BD044B7B
:1048F0009D42F3D3F0E7C04600ED00E0C001001098
:10490000CC01001003BDC04610B50400FCF73CFB11
:10491000A04710BDF0B5C64600B5040086B00F2014
:104920000E009046FBF7D0FD002105000F20FBF79D
:10493000B9FD002300220092019301230293434614
:104940000393D023049605946F460024002601218A
:1049500002201B06002C13D01A6D1042FCD05C659F
:1049600040BF1A6D114203D120BF1A6D1142FBD016
:104970009A6DA24209D00026B200BC58EAE79A6DAF
:104980001A6D1142FBD140BFE6E70136062EF3D186
:1049900029000F20FBF786FD06B080BCB846F0BDAD
:1049A0000D4B0E4A70B5934210D31C000C4A991857
:1049B0000B4D0C4A92686051FF20C00023500A4BF7
:1049C0000A4823500A48FFF7A5FF70BD01235B4248
:1049D0001C000849ECE7C046000804200000042041
:1049E000F407000000ED00E009490010FC0700009A
:1049F00005490010F3070000F0B5DE46454657466E
:104A00004E46E0B583B00400FEF760F9564A1568DB
:104A1000002D4AD0554B1E6826423BD1631E0A33F7
:104A200038D820000723083003422DD1504B994637
:104A30001B68984683422DD34E4B9C461B686446A8
:104A400004E01A68002A04D01C001300596881424F
:104A5000F7D3AB421ED01F001A68083722600A1A2B
:104A6000102A45D842464846521A02604248046815
:104A7000A24200D2026000221A60404A0E435E60E9
:104A800013680133136006E002009A4313000833F1
:104A900083422BD80027FFF7A9FC380003B0F0BCF5
:104AA000BB46B246A946A046F0BD0720344D2B00B8
:104AB0002900284202D0EB1D8343190000202D4E0F
:104AC000706031602F4EB44607266544B54380269A
:104AD0001560294AEB1A1360254A68602860136044
:104AE0004B60224B36060D601E6095E718009DE76F
:104AF00019184A60624601915860140001991268C1
:104B00009142FAD86168A3468C460199E34449680A
:104B10008A460199594515D051448A4207D00199D6
:104B20000A600A00A24200D0226001009AE7AA426D
:104B3000F5D0506801991268504448600A6058687E
:104B40000A00EFE76146514460186160824201D07B
:104B5000596887E7AA42FBD0506812684118616023
:104B6000596822607EE7C046E8070020D00A02208C
:104B7000000B0220400B0220100B02201C0B022015
:104B8000840A0020F8FF010070B5002809D0204AEF
:104B900008384368126804001A4202D001680029EC
:104BA00000D070BD934343600500FEF78FF8194AAB
:104BB000616813685B181360174B1A001B689C42EE
:104BC000FBD850681618B4420DD0601883421AD032
:104BD0002360AA4200D01560104A136801331360A5
:104BE000FFF704FCDDE70918501851608342F3D148
:104BF0000B48150000689842EED058681B684118B1
:104C000069602B60E5E7064800688342F5D1DFE77D
:104C1000D00A0220000B0220400B0220200B0220B1
:104C2000E807002010B5010000230022002000F05A
:104C300047F810BD70B5074C074D641BA41005D094
:104C4000013CA300EB589847002CF9D100F098F8EC
:104C500070BDC046104E0010104E00107047C04688
:104C60007047C04610B583070AD00300032102E055
:104C700001330B4205D01A78002AF9D1181A10BD59
:104C8000030019680C4A0D4C8A188A4322420FD13E
:104C90005968094A04338A188A43224208D159685C
:104CA000054A04338A188A432242F1D000E00133D6
:104CB0001A78002AFBD1E1E7FFFEFEFE80808080AB
:104CC000F0B5D6464F4646469846244BC0B506003A
:104CD00018689A460F009146FFF7C0FF204B1D68E9
:104CE000002D32D053466C6818681F2C30DC002E23
:104CF0000CD1631C0234A4006B606751FFF7B0FF56
:104D00000020E0BCBA46B146A846F0BD494688221C
:104D1000A300EB189950C42149008C46AC4461466D
:104D2000873AA24009689146114362461160842186
:104D3000424649005A50022EDBD129004A468D31A5
:104D4000FF310B6813430B60D3E7064D1D60C9E7C5
:104D5000FFF786FF01204042D3E7C046040200204F
:104D6000F4050020F8050020034B10B5002B02D0FD
:104D70000248FFF757FF10BD00000000354C00103F
:104D8000F8B5C0460000000001B40248844601BCEA
:104D9000604700BF6101002001B40248844601BCA5
:104DA000604700BF8101002001B40248844601BC75
:104DB000604700BF8101002001B40248844601BC65
:104DC000604700BFC1000020B10F0010DD0F0010D0
:104DD0002911001015170010B515001085160010C8
:104DE00051100010F90F0010191000102D100010B4
:104DF0006D05001035100010E5080010510F00106F
:104E000081040010694D0010FD020010851E001085
:104E1000426C696E6B205461736B00000A2A2A2A67
:104E20002050414E4943202A2A2A0A000A00000045
:104E30006E6F7420737570706F727465640000001B
:104E40005370696E6C6F636B2025642069732061F9
:104E50006C726561647920636C61696D65640000E2
:104E6000486172647761726520616C61726D2025A2
:104E70006420616C726561647920636C61696D6541
:104E8000640000004861726420617373657274008D
:104E900052656C6561736500626F6F74325F773263
:104EA0003571303830000000322E312E31000000D4
:104EB0007069636F00000000626C696E6B00000037
:104EC0004D6172203233203230323500546D7251D0
:104ED00000000000546D72205376630006005250AB
:104EE000D3F07542904E001006005250E182887F48
:104EF000984E001006005250ABB36053A84E0010FD
:104F000006005250BBFF3CB6B04E00100600525097
:104F1000861C0302B84E0010060052505422A29D77
:104F2000C04E001005005250DE65F468D4500010E9
:104F30000D0A00001F0000005446001054460010E7
:104F400054460010D4460010AA460010E246001055
:104F50005446001054460010D4460010AA460010D3
:104F6000DC4E0010E84E0010F44E0010004F001010
:0C4F70000C4F0010184F0010244F0010D0
:104F7C00F0B5C646160000B504001F000268EFF33A
:104F8C00108872B61368002BFCD0BFF35F8F656876
:104F9C006B1C0ED02368BFF35F8F00221A6088F35E
:104FAC00108800F059F8A8420FD1002080BCB846F8
:104FBC00F0BD00F051F823686060BFF35F8F0022F2
:104FCC001A6088F310880120F0E700F045F880465D
:104FDC0006E032003B00200000F02EF80028E4D15F
:104FEC002268EFF3108172B61368002BFCD0BFF36C
:104FFC005F8F65680135ECD1434663602368BFF36E
:10500C005F8F00221A6081F310880120CEE7C04622
:10501C0010B50268EFF3108172B61368002BFCD048
:10502C00BFF35F8F01235B42436000F00DF810BDAE
:10503C007047C0460000000001B40248844601BC21
:10504C00604700BF9D1D001001B40248844601BC9E
:10505C00604700BF1D1D001001B40248844601BC0E
:10506C00604700BFED1C00101000000000000000A5
:10507C000000000000000000000000000000000024
:10508C0018020020000000000000000000000000DA
:10509C00503300004C3300005433000052330000F6
:1050AC004D5300004D4300005334000043340000C6
:1050BC00FF00000088070020000000000000000036
:0850CC000000000000000000DC
:04000005100001E9FD
:00000001FF
